:020000040000FA
:0600000002011A022202B7
:03002B0002292483
:030053000222780E
:03006B000228F276
:1000830002205FE5C754F84401F5C7790122000057
:100093000080FB120086B90003020104E479217891
:1000A30008B800028004F709D8FCE479297802B87B
:1000B30000028004F709D8FCE490028178B6791332
:1000C3008002F0A3D8FCD9FA781A90014A7A01BACF
:1000D30000028007E493A3F608DAF97A367B1590D9
:1000E300014B785079038015E493A3AD82AE838AE4
:1000F300828B83F0A3AA82AB838D828E83D8E9D9C6
:10010300E77582DB7583A8740312012C75829175E0
:100113008300740012012C75D00075813F7518811E
:10012300751902759F00020096C09FF59FE473D076
:100133009F22D083D082C09FE493C0E0740193C018
:10014300E0740293F59F2201FF0000B40000280031
:100153002800283075A000A000A000A0000008001F
:1001630008E001F000100010001000100010001053
:100173000050005000500010001000D00700000095
:100183000000000F0001000500307507001000019A
:100193000081FF00000000FFFFFFB005CE05B6059C
:1001A300F205FF02020208025000A0000000E8036B
:1001B3000235820100002082025182010000911564
:1001C300022982010000BF02025182010000921540
:1001D300022B82010000D502025182010000931517
:1001E300022D82010000D702025182010000941502
:1001F300022F82080000D8020251820100009515E7
:100203000231820100009615FF0100FF20023582B2
:100213000100002682025182010000FA1502338296
:100223000000000000023B82030000060317006A7F
:100233000C6A0C6A0C6A0C6A0C6A0C6A0C6A0C6A0B
:100243000C6A0C6A0C6A0C6A0C280F3A0F220F0214
:100253000202020202020202010D0000001001026A
:10026300358201000069810251820100003D1602BE
:100273004D8201000046070251820100003E160232
:100283004B8201000043810251820100003F1602AC
:1002930047820100003581025182010000401602AD
:1002A3004582010000B7800251820100004116021D
:1002B3004382010000818002518201000042160244
:1002C3004182010000938002518201000043160223
:1002D3005582010000A580025182010000441602EC
:1002E3003F8201000019810251820100004516027C
:1002F3003D82010000461601E8030577100A0E024D
:1003030035820100002382025182010000EC1610A5
:10031300E98003000061080249820100005081FF67
:10032300FFFF00013075030201060000000000001A
:1003330000000000000000000000000000000000BA
:10034300000000000000FFFF0600800CE803110915
:100353004C494748545452454556454E54555245C9
:10036300051250002003020A0002010611060000D4
:100373000000000001000A0001FA1C12293F4C652D
:1003830064436F6E74726F6C6C65720000000000E2
:100393000000008413000012013566870312013543
:1003A300798703120135A88703120135E087031209
:1003B30001352988031201356C8803120135B2888F
:1003C30003120135E588031201350C890312013547
:1003D3003B89031201357289031201358B8903129C
:1003E3000135DA8903120135088A031201353C8A83
:1003F30003120135AEAB02120135ACAC021201356A
:1004030012AD0212013535AD0212013537AD0212BC
:10041300013575AD02120135E6AD02120135A6AE06
:1004230002120135C8AE0212013564AF0212013562
:100433009BAF02120135E0AF02120135EDAF02129C
:1004430001355DB002120135A7B002120135AAB021
:1004530002120135F0B002120135F3B00212013578
:10046300FDB00212013570B10212013598B10212CA
:100473000135CBB102120135EFB102120135ECB2F5
:100483000212013590B302120135FCB30212013599
:1004930038B402120135FEF90212013526FA0212AE
:1004A300013553FA021201358BFA02120135F1FAC2
:1004B300021201353BFB021201359FFB021201358B
:1004C300E7FB0212013524FC0212013552FC021231
:1004D3000135E7FC02120135F1FC02120135FEFC85
:1004E3000212013531FD021201353DFD02120135C3
:1004F30055FD021201355FFD0212013506A70312F5
:10050300013514A7031201352CA70312013543A7A4
:100513000312013512B901120135B5B901120135C2
:10052300CEBA0112013546BB011201356DBC011271
:100533000135A6BC011201353EBD011201352BBEAA
:1005430001120135D4BE011201355CC0011201351F
:1005530044C1011201353BC20112013571C20112BE
:10056300013513C30112013539C30112013505C524
:10057300011201354BC5011201356DC5011201355B
:10058300D9C501120135A4C6011201355EC7011296
:1005930001356AC90112013556C40212013532C54B
:1005A30002120135DCC5021201351DC602120135E6
:1005B300A4C6021201351FC702120135F2C7021287
:1005C30001351BC8021201350FC9021201354CC98E
:1005D3000212013534CA0212013565CA021201350D
:1005E3008BCA02120135FF94031201357E95031263
:1005F3000135A99503120135B9960312013500801F
:1006030003120135168003120135348003120135BC
:100613004481031201354E8103120135788203129E
:100623000135658303120135D18303120135FBCAFA
:100633000212013528CC021201355FCC02120135BA
:10064300B6CC02120135AECE021201356595011208
:100653000135EC95011201354097011201354C9794
:1006630001120135C497011201359D98011201351C
:100673009D9901120135999A01120135659B011269
:100683000135BF9C01120135D59C01120135F69C41
:1006930001120135BA9D01120135E09D01120135A8
:1006A3008DA00112013592A001120135B6A20112EB
:1006B3000135FDA20112013563A301120135A9A37E
:1006C3000112013579A4011201352EA5011201355C
:1006D3008AA5011201358DA501120135D9A5011293
:1006E300013515A60112013554A60112013576A66E
:1006F30001120135AAA60112013518A7011201350D
:10070300E5D502120135F3D50212013543D60212A3
:10071300013562D602120135ACD602120135EFD78C
:100723000212013587D802120135CBD802120135E6
:10073300F5D80212013560D902120135A4D902128B
:10074300013527DA02120135D6DA021201355029B2
:1007530000120135602900120135FA290012013512
:10076300562A00120135142B00120135372C0012C2
:100773000135672C00120135962C001201354C2EE1
:10078300001201359F3000120135FE32001201358F
:10079300E73300120135D73400120135AA360012AF
:1007A3000135A23900120135BF3A00120135B93CB7
:1007B30000120135C83D00120135573F00120135C3
:1007C30043400012013592400012013502410012EC
:1007D30001351E41001201356F41001201350F46EC
:1007E3000012013516470012013578470012013512
:1007F300A347001201355B4800120135E8DA021203
:100803000135F2DA021201353ADB021201354EDB11
:1008130002120135DFDB0212013516DC021201354B
:1008230051DC021201357ADC02120135CEDC0212F0
:100833000135E3DC0212013505DD021201351ADD53
:10084300021201352EDD0212013543DD021201359C
:100853007DDD02120135A9DD02120135E1DD02124F
:10086300013543DE02120135B9DE02120135E4DE41
:100873000212013527DF0212013551DF0212013561
:100883007CDF0212013544A203120135F2970212F2
:100893000135CB98021201353A9902120135759947
:1008A30002120135B09A02120135629B0212013520
:1008B3000F9E02120135BA9E021201359B9F02124E
:1008C300013511A10212013579A1021201354DE45E
:1008D3000212013590E402120135FBE502120135E3
:1008E30039E802120135EDFD021201359AFE0212BA
:1008F300013593FF02120135D0FF02120135C29870
:1009030003120135219903120135BE9903120135F2
:10091300F199031201351F9A031201355A9A0312F2
:1009230001357A9A03120135A4DF021201352DE055
:1009330002120135ECE002120135FAE1021201352F
:100943001AE402120135ECF30112013501F401122C
:100953000135CCF40112013599F50112013506F682
:100963000112013541F601120135E2F6011201359A
:10097300EBF701120135C3F80112013546F90112F3
:100983000135CFF90112013538FA01120135C2FAE6
:10099300011201350FFB011201357DFB01120135F7
:1009A3001FFC01120135CDFC01120135EDFC0112D2
:1009B300013531FD0112013579FD0112013595FD36
:1009C30001120135B4FD011201352EFE011201356C
:1009D3003CFE01120135CFFE0112013539FF011230
:1009E3000135D6E80212013552E90212013590E9C8
:1009F3000212013574EA02120135E3EA02120135EB
:100A030027EB021201356AEB0212013597EB021252
:100A13000135B5EB02120135EDEB021201352AEC7B
:100A2300021201354BEC02120135C1EC0212013501
:100A33000BED02120135D2A70112013566A901128D
:100A43000135A4AB01120135ECAB0112013517AC32
:100A5300011201350DAD011201353DAD0112013514
:100A630094AD01120135A7AD01120135E8AD0112B4
:100A7300013515AE011201355EAE011201359AAE94
:100A830001120135DFAE011201352CAF0112013520
:100A930094AF01120135C6B1011201358DB30112B4
:100AA3000135C8B30112013546B5011201358AB5C6
:100AB30001120135FDB50112013557B60112013599
:100AC30015B701120135BBB701120135DDB70112AC
:100AD3000135FCB8011201350DB9011201351E763D
:100AE300001201358F7600120135587C0012013552
:100AF300527D00120135147F00120135927F0012DE
:100B03000135C448001201354B49001201357849BB
:100B130000120135BA4900120135B64A00120135F7
:100B2300FB4A00120135204B001201359C4C001288
:100B33000135194D001201353E4D00120135B14DFD
:100B4300001201356E4E001201352A4F0012013595
:100B5300AA4F001201357850001201359E50001241
:100B63000135105100120135B45100120135D9512C
:100B730000120135455200120135AB520012013506
:100B8300E152001201358553001201351E54001243
:100B93000135A154001201350D5500120135595587
:100BA30000120135BF5500120135F0550012013511
:100BB300A45600120135BA5700120135035800122A
:100BC3000135205800120135005E00120135485EE0
:100BD30000120135355F001201355A5F00120135ED
:100BE3006F5F00120135D75F0012013517600012E5
:100BF30001352A6100120135D761001201351EA2A9
:100C03000212013569A20212013575A202120135E1
:100C130040A30212013556A30212013592A3021218
:100C23000135CBA30212013503A40212013559A4E5
:100C3300021201356FA402120135ABA40212013571
:100C4300BEA402120135E5A40212013519A5021250
:100C53000135EDA5021201357CA70212013578A8F2
:100C63000212013581A902120135FBFF0112013580
:100C730011D8011201354CD80112013550DB011294
:100C83000135A2DC0112013567DD0112013561E096
:100C9300011201354BE10112013596E101120135D3
:100CA300B0E101120135EDE101120135F8E1011264
:100CB300013537E20112013540E20112013501E34A
:100CC30001120135BEE30112013521E401120135A0
:100CD30085E40112013506E501120135588201123E
:100CE3000135B48501120135BA8501120135FB8C3A
:100CF30001120135D39101120135DB830312013552
:100D0300718403120135878403120135CD840312E4
:100D130001351185031201354B8503120135DD853C
:100D2300031201354C860312013555860312013532
:100D33006186031201357586031201359986031204
:100D43000135AE860312013510870312013537874B
:100D530003120135C1F102120135CEF10212013540
:100D6300E8F1021201351BF20212013558F20212A8
:100D73000135BEF202120135D3F202120135DEF261
:100D830002120135EBF20212013502F302120135B0
:100D930010F3021201351BF30212013527F302127D
:100DA300013536F30212013541F30212013567F3BF
:100DB300021201350BF4021201351BF40212013544
:100DC30035F40212013552F4021201356DF40212A8
:100DD300013594F4021201359FF402120135B4F483
:100DE30002120135C8F40212013529F50212013548
:100DF3002FF50212013535F5021201353BF50212CA
:100E0300013553F50212013586F5021201350580CD
:100E13000212013593800212013528810212013535
:100E23000482021201353882021201354B8202120A
:100E33000135C582021201354D84021201357484D5
:100E430002120135FB84021201353A850212013583
:100E53004B8502120135C08502120135DF8502126E
:100E63000135F785021201353B87021201354589A9
:100E730002120135778B021201357D8C0212013586
:100E8300C08C0212013577C9011201358ACA0112D9
:100E9300013572CB011201357CCB011201359ECB9A
:100EA30001120135AACB01120135F7CC011201352C
:100EB30024CD0112013545CE0112013587CE011231
:100EC3000135BCCF011201358CD001120135DBD0C5
:100ED300011201353CD10112013571D101120135E5
:100EE300AAD10112013555D5011201356CD5011274
:100EF3000135EAD501120135F8D50112013541D684
:100F0300011201354FD601120135D0D60112013538
:100F13003FD7011201358BD7011201350D8D021216
:100F230001352F8D021201350B8F02120135839289
:100F330002120135CD9302120135AF94021201352D
:100F4300409C03120135659C03120135D69C0312A4
:100F53000135D3BC02120135DCBC02120135E5BCFC
:100F63000212013509BE02120135FABF0212013520
:100F730028C00212013553C00212013581C002128A
:100F83000135ACC002120135EAC00212013516C1A7
:100F93000212013553C1021201357EC1021201351D
:100FA300CAC10212013521C20212013561C2021205
:100FB3000135B0C202120135DBC20212013521C371
:100FC300021201354FC3021201357AC302120135F1
:100FD300A7C302120135CAC302120135D3A70312F4
:100FE3000135FFA70312013558A80312013562A882
:100FF3000312013572A803120135A48A03120135C5
:10100300CB8A03120135F68A0312013533A9031281
:101013000135096200120135606400120135106662
:10102300001201356D66001201356D67001201353E
:10103300EA670012013572680012013597680012E1
:101043000135726B00120135E66B00120135D56C68
:10105300001201350B6D001201354E6D0012013582
:10106300CF6E00120135116F001201355A6F001255
:101073000135C36F00120135E56F00120135FF6FB3
:10108300001201351D71001201352D710012013559
:10109300B07200120135D0720012013506730012CE
:1010A3000135827400120135BF7400120135F975E0
:1010B30000120135889A03120135E49A03120135AF
:1010C300889B03120135A79B03120135F59B03127D
:1010D3000135E77F001201357DA903120135BCA953
:1010E30003120135EAFF0212013550A5031201353F
:1010F30060A50312013575A50312013529A6031254
:10110300013558A303120135DBA30312013541A4B2
:101113000312013518A1031201353FA10312013552
:1011230095A103120135A8A103120135F9A10312F8
:10113300013538A2031201353BA20312013500F633
:101143000212013514F6021201358DF60212013531
:1011530061F70212013533F90212013598F90212CF
:101163000135EBF902120135F87F00120135E896DB
:10117300031201355E9803120135BF98031201353E
:10118300939F03120135BA9F0312013562A0031224
:1011930001352FA60312013552A6031201357BA692
:1011A30003120135BDA6031201359BD0021201358E
:1011B300A5D002120135E5D0021201352ED102125B
:1011C300013566D102120135BCD102120135D9D1E4
:1011D30002120135E2D10212013527D20212013582
:1011E30050D20212013565D202120135D5D2021254
:1011F300013562D302120135B6D302120135D9D3B8
:101203000212013558D40212013593D4021201356A
:10121300C8D402120135DAD402120135F9D402120C
:10122300013502D502120135B9D502120135F19DFE
:1012330003120135429E03120135CB9E0312013581
:10124300359F031201354890031201357090031244
:1012530001356591031201358A9103120135199203
:10126300031201355AA40312013503930312013506
:101273003993031201356C9303120135C59403129C
:1012830001355CFF0112013572FF011201357CFF4C
:1012930001120135D0FF011201357CA8031201357B
:1012A3005EB40212013518B50212013553B50212AC
:1012B300013584B502120135F4B5021201354AB67F
:1012C300021201359EB6021201358BB702120135A7
:1012D30084B80212013505BA02120135B9BA0212F5
:1012E300013522BB0212013535BB021201351ABC8E
:1012F3000212013573BC0212013552ED021201359F
:1013030068ED0212013509EE0212013548EE0212B0
:10131300013565EE0212013596EE02120135E3EE58
:101323000212013516EF0212013551EF0212013597
:101333004CF102120135B4F10212013550E60112EB
:101343000135D8E90112013567EB01120135BEEB16
:1013530001120135DDEB011201355BEC01120135A0
:10136300E1ED01120135B4EE011201356EF2011205
:10137300013556F301120135798D031201352F8F93
:1013830003120135AD8F03120135C6A903120135CE
:10139300BB7F001201350CAA03E066701008A3E0BE
:1013A30066700A08A3E066700408A3E06622C3E738
:1013B300960809E7960809E7960809E79622C3E025
:1013C3009608A3E09608A3E09608A3E09622C00837
:1013D300C3E096F50808A3E096420808A3E0964206
:1013E3000808A3E09645087001D3D008220808082E
:1013F300EAC0E0EBC0E086F0E7A4FA180986F0E75C
:10140300A42AFA180986F0E7A42AFA180986F0E74D
:10141300A42AFA1986F0E7A4FBE5F02AFA1908864C
:10142300F0E7A42BFBE5F03AFA190886F0E7A42BC2
:10143300FBE5F03AFA18180986F0E7A4C5F02BFB90
:10144300E43AFA1908E7C5F0C6A426F6E5F03BFB33
:10145300E43AFA1886F0E7A4F6E5F00826F6E43B4A
:1014630008F6E43A08F6D0E0FBD0E0FA22E4CFC075
:10147300E0E4CEC0E0E4CDC0E0E4CCC0E075F02011
:10148300E626F608E633F608E633F608E633F618FA
:101493001818EC33FCED33FDEE33FEEF33FFC3ECF2
:1014A3009709ED9709EE9709EF97191919400FFF5F
:1014B300EC97FC09ED97FD09EE97FE191906D5F097
:1014C300BFECF709EDF709EEF709EFF7191919D092
:1014D300E0FCD0E0FDD0E0FED0E0FF22601608087B
:1014E30008C6C313C618C613C618C613C618C61330
:1014F300C6D5E0EA227009080808226016181818F1
:10150300C6C333C608C633C608C633C608C633C601
:10151300D5E0EA22E627F60809E637F60809E637B2
:10152300F60809E637F622E026F608A3E036F608C1
:10153300A3E036F608A3E036F622E026F008A3E09F
:1015430036F008A3E036F008A3E036F022C3E697AE
:10155300F60809E697F60809E697F60809E697F606
:1015630022C3E0C696F608A3E0C696F608A3E0C633
:1015730096F608A3E0C696F622C3E096F008A3E029
:1015830096F008A3E096F008A3E096F022E056F662
:1015930008A3E056F608A3E056F608A3E056F622A1
:1015A300E056F008A3E056F008A3E056F008A3E0E5
:1015B30056F022E0F608A3E0F608A3E0F608A3E05D
:1015C300F622E6F008A3E6F008A3E6F008A3E6F0A7
:1015D30022E0FAA3E0FBA3E0FCA3E0FD22E0FCA3EE
:1015E300E0FDA3E0FEA3E0FF22ECF0A3EDF0A3EE09
:1015F300F0A3EFF022E0F8A3E0F9A3E0FAA3E0FB05
:1016030022E8F0A3E9F0A3EAF0A3EBF022CAC0E0DA
:10161300E6F0A308DAFAD0E0FA22CAC0E0E0A3C5F4
:1016230082CCC582C583CDC583F0A3C582CCC582D8
:10163300C583CDC583DAE6D0E0CA22C3E498F8E4D3
:1016430099F912167F8026C3E49AFAE49BFBE920FA
:10165300E7E912167FE498F8E499F922C3E498F8CD
:10166300E499F912167FE498F8E499F9C3E49AFA35
:10167300E49BFB22EB20E7CFE920E7E0B90010BBB6
:101683000008E88AF084F8AAF022E4FBC8FA22EB07
:1016930070227B10C833C8C933C9335007C39AC3F8
:1016A300DBF280069A50012ADBEAC833F4C8C93357
:1016B300F4C9FA2275F008E4C833C8C933C933C979
:1016C3009AC99B5004C92AC93BD5F0ECFBC833F433
:1016D300C8E4C9FA22600D08C6A2E713C618C613E8
:1016E300C6D5E0F322600C08C6C313C618C613C6DA
:1016F300D5E0F422700422600D18C6C333C608C6B1
:1017030033C6D5E0F41822251810AF08F518400C9D
:1017130015198008F51840021519D2AF2200C0D060
:10172300251810AF08F518500C05198008F5185046
:10173300020519D2AFD0D0222518F58210AF08F5D3
:1017430018400C15198008F51840021519D2AF85F9
:101753001983222518F582E43519F583222518F813
:10176300E43519F9222518FAE43519FB222518FC6A
:10177300E43519FD22E4732518C582C0E0E5193468
:10178300FFC583C0E0E518C3958224F810AF088530
:1017930083198582188008858319858218D2AFCE74
:1017A300F0A3E520F0A37808E608F0A3DEFAEFF053
:1017B300A3E58124FAF8E608F0A3E608F0A3E60817
:1017C300F0A30808E608F0A3E608F0A31581158145
:1017D300D0E0FED0E0F8158115811581E8C0E0EE78
:1017E300C0E0222518C582C0E0E51934FFC583C0D7
:1017F300E0E518C3958224F910AF08858319858223
:10180300188008858319858218D2AFCEF0A3E5200E
:10181300F0A37808E608F0A3DEFAEFF0A3E581244D
:10182300FBF8E608F0A3E608F0A30808E608F0A32F
:10183300E608F0A315811581D0E0FED0E0F815810C
:101843001581E8C0E0EEC0E022851983851882E0A7
:10185300A3FEE0A3F5207808E0A3F608DFFAE0A3EF
:10186300FFE0A3C0E0E0A3C0E0E0A3C0E0E0A3C0CA
:10187300E0E0A3C0E010AF088582188583198008D3
:10188300858218858319D2AFD083D0820201328535
:101893001983851882E0A3FEE0A3F5207808E0A36E
:1018A300F608DFFAE0A3FFE0A3C0E0E0A3C0E0E0B6
:1018B300A3C0E0E0A3C0E010AF08858218858319B8
:1018C3008008858218858319D2AFD083D08222C045
:1018D300D02518C582C0E0E51934FFC583C0E0E513
:1018E30018C3958224F310AF088583198582188065
:1018F30008858319858218D2AFC8F0A3E9F0A3EA5B
:10190300F0A3EBF0A37908E709F0A3D8FAECF0A36E
:10191300EDF0A3EEF0A3EFF0A3D0E0F0A3D0E0F05E
:10192300A3D0E0F0A3E520F0A3E5F0F0A32285190E
:1019330083851882E0C0E0A3E0F9A3E0FAA3E0FB0B
:10194300A37808E0F608A3DFFAE0FCA3E0FDA3E038
:10195300FEA3E0FFA3E0C0E0A3E0C0E0A3E0F5D076
:10196300A3E0F520A3E0A3F5F010AF088583198564
:1019730082188008858319858218D2AFD082D083DC
:10198300D0E0F8D0E032740480067402800274015F
:10199300C0E0F40412173BD0E01216102274048046
:1019A3000474028000CCC0E0EDC0E0E518C39CCC19
:1019B300AD1950011D10AF068C188D1980068C18B7
:1019C3008D19D2AF12161DD0E0FDD0E0FC22D083DA
:1019D300D082E9C0E0E493A3C386F0C5F095F0F9A3
:1019E30008E493A386F0C5F095F0700BE493A3C3CA
:1019F300994005E9048002A3E475F002A42582F569
:101A030082E5F03583F583D0E0F9E493A3C0E0E405
:101A130093C0E022D083D082ECC0E0EDC0E0E49339
:101A2300A3FCE493A3FDED4C600D121A63EC24FFB9
:101A3300FCED34FFFD80EFE493A3FCE493A3FDED01
:101A43004C600D121AA2EC24FFFCED34FFFD80EF75
:101A5300D0E0FDD0E0FCE493A3C0E0E493C0E02237
:101A6300C0E0C3E49396087401939618400FE4937F
:101A730066700808740193661870007019A3A3C3F5
:101A8300E49396087401939618A3A3400DD0E0D075
:101A9300E0D0E0021A53A3A3A3A3A3A3D0E022C0E0
:101AA300E0C0F088F0E49366700808740193661848
:101AB3007000A8F0A3A3700BD0F0D0E0D0E0D0E08A
:0A1AC300021A53A3A3D0F0D0E022D2
:101AD00074F61217E6EAFEEBFF8C088D09EA24344F
:101AE000F8E43FF9E8FCE9FDEA2435121E77FAEE46
:101AF0002437121E77F88508F0A4C885F00A8509F6
:101B0000F0A4250AF9EA28F8E439F97A257B0012CD
:101B1000167FEA8C828D83F0FA131313541F121E62
:101B20006B245DF582E439F583E0C0E074075AF870
:101B3000D0E0B800028004C313D8FCA2E0EE500845
:101B40002434F582E43F80142436121E77F5F0EA3F
:101B500084A8F0121E6C2438F582E439F583E0F98C
:101B60007F0302189274F71217E6EAFEEBFFEA24ED
:101B700034121E77C0E0EA2435F582E43FF583D0C5
:101B8000E0F08A828B83A3A3A3A3A3A3A3C082C0F4
:101B9000838A828B83A3A3A3A3A3E0F8A3E0F9D055
:101BA00083D082E0C398F508A3E099F509EA248080
:101BB000121E776401703EEA2481F582E43FF583CA
:101BC000C082C0838A828B83A3A3A3A3A3E0240142
:101BD00008A3E03400F9D083D082E0687003A3E06A
:101BE0006970127CB67D04120BAAEE2480F582E4A3
:101BF0003FF583E4F0AC08AD09EEFAEFFB121AD022
:101C0000E9F91228E47F02021892C082C083851885
:101C100082851983E0F8A3E0F9C3EA9CEB9D50109C
:101C2000C3EC98ED99401BC3EA98EB995014800ED1
:101C3000C3EA98EB994007C3EC98ED994004790109
:101C400080027900D083D08222EAC39CFAEB9DFB0C
:101C50002274EF1217E6900376E064086005E064F2
:101C600007702A9061C8E060249003A4E0F4601D2E
:101C7000E0F875F010A4C8AAF02AF974A628FE743A
:101C80000339FF8E82F583A3A3A3E07003021D6ACC
:101C9000906060E0C0E0EE2468F582E43FF583D018
:101CA000E0F0750C27750D05750800750900E5D97C
:101CB00014F50AE5D95403F50E602F7403650E6020
:101CC0001DE50A6008EE2467121E77601D9005224C
:101CD000E06401602C121E74601278048010121EE1
:101CE00074602CE50AC39405502580637800E50AEA
:101CF000C398FA95E0FB120A488A088B09EA4B70F0
:101D000005120DF08064121E7470048A0C8B0DE5B0
:101D10000A6012850C82850D83F50BE5D9F0A315B9
:101D20000BE50B70F6121E74604574FC250AF50A6B
:101D3000780C12198DAC0AA90EEEFAEFFB120C64A6
:101D40007402121720E97027AA08AB09121234791D
:101D50003D8E828F83A3A3A3A3E0FA7B001208B079
:101D6000EEFAEFFB120BCE120C767900021E6674AF
:101D700003650E6053E50AF510751100781012190D
:101D80008DAC0CAD0DAA08AB09120C287402121709
:101D900020EE2468121E7764807004747F8001E056
:101DA000F50C780C121991E50EF50C780C121991BE
:101DB000A90AAC08AD099003A4E0FA7B00120886DA
:101DC0007402121720021E61850C82850D83E0C308
:101DD000940E5011E0F8742728F582E43481F583DD
:101DE000E0650A6069850C82850D83E0C0E0EE2421
:101DF000F7F582E43FF583D0E0F0A2AFE433FCC214
:101E0000AF7A0080010AEE246E121E77F8EAC398BA
:101E10005013EA121E6B246AF582E439F583E064FC
:101E20000770E28022EE246EF8E43FF9E0FAEE2A31
:101E3000FAE43FFBEA246AF582E43BF5837407F099
:101E400088828983E004F0ECA2E092AF80139003D3
:101E500076E06408600BAC0CAD0DEEFAEFFB120CF3
:101E6000EE120DFC79017F0A021892F8EE28F8E4D0
:101E70003FF9E822EE2484F582E43FF583E0227402
:101E8000F11217E674FC12170AEAFEEBFF890975D6
:101E90000D00A2AFE433F508C2AF9004BEE0FA90A3
:101EA00061D0E0F8748098F895E0F9C3EA98E49975
:101EB000A2D265D0334003021F69750D01021F696C
:101EC000E0601B780A12198DAC0EA90FEEFAEFFB39
:101ED000120C5E74021217207404250EF50E7401A4
:101EE000250EF5D9850FD9E50E6012850A82850B7E
:101EF00083F50CE0F5D9A3150CE50C70F675E195AA
:101F0000EE2463F8E43FF97A007B00A2AFE433F5F6
:101F10000AC2AF88828983E0FCA3E0FDEC4D603A01
:101F200088828983E0FAA3E0FB8C82F583E0FCA33E
:101F3000E0FD88828983ECF0A3EDF08A828B83E454
:101F4000F0A3F088828983E0FCA3E0FDEC4D700AE9
:101F500088828983A3A3E4F0A3F0E50AA2E092AF0C
:101F60001212349004BDE004F0EE2463121E77F8E0
:101F7000A3E0F9E8496063EE2463121E772402F8B7
:101F8000A3E034008882F583E5822402F50AE43573
:101F900083F50BE0F50EA3E0F50FEE2462121E7739
:101FA000640170369061D0E0F8121E7460047C0405
:101FB00080027C007480C398FA95E0FBE50E2CF853
:101FC000E43400F9E82402F8500109C3EA98EB99D7
:101FD000A2D265D0334003021EC09061D0E0F874F5
:101FE00080C3989004BEF0E50D60539004BDE0609E
:101FF0004D9004BFE0F89004BDE0C398500C74020B
:102000006509703A9004C0E060348E828F83A3A388
:10201000A3A3E085188285198312204E740212173B
:1020200056E812204E9004BCE028F074021217709B
:10203000AA18AB1979011208DA9004BDE4F0E5089A
:10204000A2E092AF74041217207F08021892F0A346
:10205000E4F09004BDE0F8228521878522C622C0E5
:10206000E074EB1218D2A2AFE433F508C2AF759B4F
:1020700000906182E0A2E0502DE591A2E05027752A
:1020800091FE74016521701E1221D61221ED1219E4
:10209000A01226937404121720E9640170057901D7
:1020A000120D84121C51906182E0A2E5505AE59114
:1020B000A2E550547591DF900376E064076005E077
:1020C0006408702C1221D674016521703B1221ED39
:1020D0001219A01226937404121720E964017005E6
:1020E0007901120D847901EEFAEFFB121E7F801840
:1020F000E0640D7013900398E004F064287002E42B
:10210000F07A00E0F9120E02906182E0A2E640034C
:102110000221ABE591A2E640030221AB7591BF908D
:102120000376E064057008120D24120D308003124E
:102130000D2A752100120D90E9900377F0790012B5
:102140000D84120B147A017B00900375E0F91212D2
:1021500004907803E064427052900526E014F07019
:102160004AC2AF12216600782AD0E0F618D0E0F615
:10217000E59F540770047BFF80027B7FC4C0E0783A
:1021800029E6F50A08E65BF50B740B780A1216E8E7
:10219000D0E0250AF8906270E0A2E740F8E8C33387
:1021A000906272F0906270E0D2E0F0906181E0A203
:1021B000E35009E5E9A2E3500375E9F7A3E0A2E7DC
:1021C0005009E591A2E7500375917FE508A2E092DE
:1021D000AF7F080219319003A4E0F875F010A4C88D
:1021E000AAF02AF974A628FE740339FF22120D3CC6
:1021F0008E828F83E0F8A3E0C82416F582E438F5D8
:102200008322C0E0C0D0C082C083906183E0A2E09E
:102210005009E5BFA2E0500375BFFEE0A2E15009FE
:10222000E5BFA2E1500375BFFDE0A2E25009E5BFA2
:10223000A2E2500375BFFBE0A2E35009E5BFA2E3B1
:10224000500375BFF7E0A2E45009E5BFA2E45003D4
:1022500075BFEFE0A2E55009E5BFA2E5500375BFE9
:10226000DFE0A2E65009E5BFA2E6500375BFBFD08C
:1022700083D082D0D0D0E032C0E074F21218D2E520
:10228000A7A2E6500FE5A1A2E6500953A7BF75A18A
:10229000BF1222CCE5A7A2E5500CE5A1A2E55006AD
:1022A00053A7DF75A1DFE5A7A2E15009E5A1A2E1EF
:1022B000500375A1FDE5A7A2E2500CE5A1A2E250F2
:1022C0000653A7FB75A1FB7F0102193174F71217A2
:1022D000E6752101900376E064067015120C9A8A67
:1022E000828B83A3A3A3A3A3A3E0FAA3E0FB120D15
:1022F00012A2AFE433FED2AF90037CE06401701809
:102300007A207B00900375E0F912131E7A207B007F
:10231000900375E0F912120A906182E0D2E6F09023
:102320000523E0602185C622801690037BE06401CE
:102330007008E5C654F84405F5C653BEFC12205893
:102340007401652160E4EEA2E092AF7F0202189270
:102350008E238F248582288583278518828519837B
:10236000E0CEA3E0CF852882852783EBC9EAC8EDBC
:10237000CBECCA75F010C3E833C8E933C9EA33CAF5
:10238000EB33CBC3EA9EF526EB9FF525B35004ABA8
:1023900025AA26EC33CCED33CDD5F0DAAE23AF242D
:1023A0002274E91217E674FA12170AEAFEEBFF8CA0
:1023B0000A8D0B120D48EAF8EBF9ECFAEDFB8E8270
:1023C0008F83121604900376E024F7C39405500619
:1023D000751401022507120C9A8A088B09EA4B70C2
:1023E00003022504EEFCEFFDAA18AB19120D42857D
:1023F0000882850983A3A3780C1215B69081EC7826
:102400000C12159085188285198378101215B690D4
:1024100081EC7810121590780C79101213B1501FBE
:10242000780C79101215509081A0780C1213D140BD
:102430005D850C14850D15850E16850F1780379058
:1024400081A085101485111585121685131778142F
:10245000790C12155078141213D15032751400757E
:10246000150075160075170178147910121550783B
:1024700014790C121517740978141214F890821834
:10248000780C1215B67814790C121470800C75142F
:102490001475150075160075170085088285098367
:1024A000A3A3A3A3A3A312252512167F880C890D2D
:1024B000E4F50EF50F7814790C1215177404121741
:1024C0005612252512167FE8FAF50CE4F50D78145E
:1024D000790C1213B150077814790C12155090032F
:1024E00076E06408600AE064066005E06405702038
:1024F0009081A478141213D150169081A8781412E8
:10250000152A800C751400751500751600751700D6
:10251000850A82850B8378141215C574061217205C
:102520007F10021892E0F8A3E0F97AD07B032274BE
:10253000F71217E6120D5A900521E0640170109011
:102540006245E4F0A3F053F4F343FE0C5390F3120E
:102550000D00E5C654B84441F5C6E59E54476441B4
:1025600070F8906185740FF090051FE0F47002A37D
:10257000E0604E900520E0600814601B14602E801F
:102580004075080175090090051FE078081216F7DC
:10259000E508F45280802A75080175090090051F2E
:1025A000E078081216F7E508F452908014750801D7
:1025B00075090090051FE078081216F7E508F45237
:1025C000A079007F0202189274F71217E6E9FEEA7A
:1025D000FF120D5A74016E700C7A807B00900375A7
:1025E000E0F9121204902948E493F46008E493F9A6
:1025F000120B08800953C6B8E59E544770FA120DB5
:1026000006900521E064017003120B2C90051FE079
:10261000F47002A3E0604B900520E0600814601A9B
:1026200014602C803D75080175090090051FE07845
:10263000081216F7E5084280802875080175090020
:1026400090051FE078081216F7E508429080137590
:10265000080175090090051FE078081216F7E508D3
:1026600042A0120C9A8B09A909EA496014E5E170AD
:10267000FCEA2414F582E439F583E0F46003E0F524
:10268000E174016F700A7A01900375E0F912128EFD
:102690000225C374F11217E68A088B098C0A8D0B88
:1026A0009081EC7808121590740F121756780C125E
:1026B00015B69081EC780C1215907808790C1213ED
:1026C000B19081A050107808790C1215507808123A
:1026D00013D14014800E780C7908121550780C1222
:1026E00013D150047901800279007F080218927496
:1026F000ED1217E68A088B098C0A8D0B9081EC7815
:10270000081215907413121756780C1215B6908192
:10271000EC780C121590780C79081213B1401178EE
:1027200008790C121550AA08AB09AC0AAD0B80222F
:102730007510007511007512007513017810790C71
:1027400012155078107908121517AA10AB11AC1297
:10275000AD137F0C0218929081EC78081215B68A9E
:10276000828B8378081215A37F0402189274F512E5
:1027700017E68C828D8378081215B68A828B83784F
:102780000812157C1227C5C3E09CF0A3E09D122718
:10279000B740229081F878081215B68A828B837828
:1027A0000812153D8A828B83A3A3A3A3E02420F003
:1027B000A3E0344EF080A0F088828983C3E09420A7
:1027C000A3E0944E22EA2404F8E43BF98C828D8342
:1027D000A3A3A3A3E0FCA3E0FD888289832274F570
:1027E0001217E69004D9E0FAA3E0FBE929F8E433F4
:1027F000F9740928F582748139F583E02AF508A374
:10280000E03BF509780812198D9082101215D41248
:10281000235074021217208A088B098C0A8D0B74BE
:102820001078081214DFAA08AB097F04021892740A
:10283000F11217E68A0C8B0D8C0E8D0F7411121786
:10284000561219A47411121756E02401F508A3E0DA
:102850003400F509E4F50AF50B780C79081213F049
:102860009081B478081215B6780C79081213F0AA82
:102870000CAB0DAC0EAD0F1223507402121720EAF0
:102880004B60047A0180027A00EC2AFCE43DFD747E
:1028900013121756E0F8A3E0F9E8FEE9FFECF8EDB3
:1028A000F97A717B0212167F88088909E4F50AF526
:1028B0000B8E828F8378081215C5ECF8EDF97A71CA
:1028C0007B0212167F8A088B09740578081216F7A6
:1028D0008E828F83A3A3A3A3E508F0A3E509F07F6D
:1028E00008021892C082C083E9906000F0D083D0C3
:1028F0008222C0E074F21218D2A2AFE433FED2AF4B
:10290000E589A2E04006E589A2E1500312112C7589
:102910008900758900C2C5751A00EEA2E092AF7FEA
:1029200001021931C0E0C0D0E8C0E0A8A8D2AFC20F
:10293000C7751A00E8A2E792AFD0E0F8D0D0D0E097
:0729400032C2AF02000022C9
:10294800FFFFFFFFFFFFFFFFC082C083E99015F97B
:10295800F0D083D08202013274F612177AE990021D
:10296800E8F0900348E0F508750900740278081249
:1029780016F7AA08AB091212769002E9122E3460F3
:102988006E900348E075F003A4FAABF0121276904B
:102998000306122E34700B9002E912367812127C5C
:1029A800804D9003061245E17AFF7BFF1210B47A3E
:1029B80000801EEAF508750900740278081216F7F7
:1029C80012407D74FFF0A31245F5A3A3E4F0A3F031
:1029D8000A900348E0F8EAC39840D87905120766D8
:1029E8009002E8E0F91206587AF07B071209E8022B
:1029F800411974F412177A8A088B09EB54806047DE
:102A08009002E8E0F91211EC8A0A8B0BAE0AAF0BC0
:102A1800EA4F602A8A828B83E064B0701A120778C2
:102A2800E960148E828F83A3A3A3A3E0F9EE2405A3
:102A3800FAE43FFB120748EEFAEFFB1211DAAA0894
:102A4800E5096480FB80047A007B00022C6274F242
:102A580012177A74FB12170AEAFEEBFFEA4F60437B
:102A680074031217561232E1851882851983ECF027
:102A7800A3EDF07402121756E9F0AA18AB19120662
:102A880052E9F50870777413121756E0F50AA3E0B7
:102A9800F50BE50A450B60658E828F83123075EE63
:102AA8004F700575080280557A067B001212768AE7
:102AB8000C8B0DA80CA90DEA497005750813803D0B
:102AC8008A828B83E4F0122B0CA3EEF0A3EF12485A
:102AD800BAE50AF0A3E50BF09002EC122C2690025E
:102AE800EC6017E0FCA3E08003EAFCEBFD8C828D30
:102AF80083122C2670F38C828D83123C9DA9087456
:102B080005024853A3F08A828B83A32274F212171A
:102B18007A8908E9F50C750D007403780C1216F71C
:102B2800850C0A850D0B9002EBF09002E91245C660
:102B3800122C24602F12127C7900801EE9F50C7586
:102B48000D007402780C1216F79002E9123F3688CD
:102B580082F583A3A3E4F0A3F009900348E0F8E921
:102B6800C39840D8900348E0FA850AF0A4CAA8F0B0
:102B7800850BF0A428FB1212768A0C8B0DAE0CAFD5
:102B88000DEA4F7003022C1A900348E0FC850AF006
:102B9800A4CCA8F0850BF0A428FD79001211C87CFC
:102BA800008032EDF50C750D007403780C1216F7E1
:102BB8008A828B83122C1F8882F583E4F0122C2CD6
:102BC800A3A3F0A3F00DEDC3950840D7EE250AFEA8
:102BD800EF350BFF0C900348E0F8ECC3985029EC54
:102BE800F50C750D007402780C1216F79002E912B4
:102BF8002C1FE82402500109FAE9FB8A82F583EECA
:102C0800F0A3EFF07D0080BEE5089002EBF07900BC
:102C180080027913024856123F3AF922A3A31232CE
:102C2800F9EA4B22A3F088828983A3A3A3A3227481
:102C3800F412177A7900EAA2E0501F75087E750928
:102C480081780812198D79107C047D007AFB7B1538
:102C58001207607402121720E9F97F0402184CC0A9
:102C680082C0839002EC12403C601C88828983A356
:102C7800A3E06A7003A3E06B8882898370E8A3A34A
:102C8800A3A312367880047A007B0002295974F2D3
:102C980012177A74FD12170AEAFEEBFF851882856F
:102CA8001983E4F0A3F074021217567401F090022D
:102CB800EF12403C70111209221212769002EF12A4
:102CC8002E347003022E281233CEEE2404F50AE4C3
:102CD8003FF50B850A82F583E024FE603C24FC6006
:102CE8007424FE607E24FE7003022D7824FE700397
:102CF800022D8524FE7003022D9224FE7003022DFE
:102D08009F24FE7003022DAC24FC7003022DCD24F9
:102D1800FE7003022DE5022E211209229002F1EA2B
:102D2800F0A3EB122E3D1203A6E96003022E2190B8
:102D380002F11219A48E828F83A3A3A3A3A3124521
:102D4800E1850882850983123678120730740212E9
:102D58001720022E21AC18AD19EEFAEFFB12077EF0
:102D6800022DF0AC18AD19EEFAEFFB12078480784B
:102D7800AC18AD19EEFAEFFB12078A806BAC18ADF0
:102D880019EEFAEFFB120790805EAC18AD19EEFA57
:102D9800EFFB1207968051AC18AD19EEFAEFFB1253
:102DA800079C80447402121760880C890D780C12F5
:102DB800198D7402121770EEFAEFFB1207A2740253
:102DC8001217208023AC18AD19EEFAEFFB1207A8F2
:102DD800E9F870167402121756E4F0803CAC18AD8E
:102DE80019EEFAEFFB1207AEE9F8E8602C8E828F35
:102DF80083A3E064146022850A82850B83E0900235
:102E0800F1F08518828519831236789002F2123211
:102E1800E1E8A3122E3D1203A0EEFAEFFB1207061B
:102E28007402121756E0F97403024853EAF0A3EB50
:102E3800F0F9EA4922F07CF17D0285088285098350
:102E48001232F92274E812177A74FA12170A740403
:102E5800121756ECF0A3EDF08A128B13EA2405F54D
:102E68000EE43513F50FEA2402F510E43513F511D5
:102E780085108212391F7508007C037D0079007A5D
:102E8800F17B021211C8E50E2402F516E4350FF5A0
:102E9800177402121760880C890D780C12198D8529
:102EA8000E82850F83A3A3A3A3E0F50C750D00780C
:102EB8000C12198DE50E2405F50CE4350FF50D7887
:102EC8000C12198D851682851783123967121720FF
:102ED8008A0C8B0DE50C450D70030230448020856B
:102EE8001882851983E088828983F005088518820D
:102EF800851983A3E0C0E012307FD0E0F00508E533
:102F08000A24FBF8E50B34FFF9C3E50898E4994077
:102F1800030230447E007F00851282851383A3A3B9
:102F2800A3A3E0F5097809121991E4F514F51578C9
:102F38001412198D7514EE751502781412198D90E6
:102F480002EF1219A474091217561219A4E50A24DB
:102F5800F9F9AC0CAD0D123979121720E9600302AA
:102F68002FEB850E82850F83A3A3A3A3A3A3A3E0BE
:102F7800F89002EEE068706BE0F5148E1578141284
:102F8800198D1245DE850E82850F83A3A3A3A3A303
:102F9800A3A3A31236781211C27402121720E96093
:102FA800421240397034E4F514781412198D7CFFFC
:102FB8007DFF79071239881217208B15A915123051
:102FC800947017850E82850F8312476D740412174B
:102FD8005612402612399A023072850C82850D836A
:102FE800123075A818A91988148915781412198D22
:102FF80074041217561219A485168285178312397C
:10300800491217208A0C8B0DEE4F7003022EDC122A
:10301800307FEE12308A123930EF12308AF8A3E08E
:103028003400F9E50C4B6003022EE788828983742B
:10303800FFF0050812307F74FFF00508E5086014FA
:103048001313543F1232E71203B2E96003123F4DE3
:1030580079008016850E82850F8312476D740412DD
:103068001756124026123C9D790A023900A3A3A3E1
:10307800A3E0FEA3E0FF22A8089002F2E02812399C
:103088003022F00508089002F2E028229002F2EAC5
:10309800F0A3EBF0EA492274E812177A74FA1217CF
:1030A8000A74021217561232E17404121756ECF021
:1030B800A3EDF07402121756E0240512390AF583BD
:1030C800E0F50CA3E0F50D7402121756E02402F5A2
:1030D80010A3E03400F51185108212367C750800C3
:1030E800750900EA24FCFEEB34FFFF8008050CE5B7
:1030F8000C7002050DA808C3EE98EF940050030267
:103108003292A818A919880E890F780E12198D8580
:103118001482851583A3A3A3A31245BD12198DE5B7
:10312800142405F50EE43515F50F780E12198D8562
:103138001482851583A3A31245E1AA0CAB0D1206D0
:103148007074061217208A0E8B0FEA4B7003023236
:1031580092EA2404F516E4350FF517851682F583EF
:10316800E0F50CA3E0F50D8518828519831219A4E2
:10317800AC0EAD0F851082851183123916121720F7
:10318800E9F50960030232927402121756123940A7
:10319800F5097809121991E4F512F5137812121944
:1031A8008D7512EE751302781212198D9002EF12B6
:1031B80019A474071217561219A4EEF9AC0EAD0F24
:1031C800123979121720E9F5096003023292E508ED
:1031D800703BE4F50EF50F780E12198D7CFF7DFF1C
:1031E80079091239881217208B0FA90F9002F31250
:1031F8003097700D74041217561232D479110232B6
:10320800C39002EEE024029002F2F080149002F2E1
:10321800E0FA9002EEE0790024025001096A497050
:103228006DA8089002EEE0FAE82AFAE43400FBEE12
:103238009AEF9B4055851682851783E0C0E090027F
:10324800F3123084D0E0F00508851682851783A331
:10325800E0C0E0089002F3123084D0E0F005089056
:1032680002EE1245BD12198D1245DEA8081232C6AB
:103278001217209002EEE02508F50874FF650C701F
:103288000474FF650D60030230F5E508601C9002C8
:10329800F2E0F5F0E508841232E71203B8E96006B7
:1032A8009002F3123F5079008011E5097003750907
:1032B8000A74041217561232D4A90902390090026E
:1032C800F3E028FAA3E0340012459B221245CAE530
:1032D8000CF0A3E50DF022A3A3EAF0A3EBF02290F3
:1032E80002F1F07CF17D028510828511831232F99A
:1032F80022123C8DFB2274EC12177A74FC12170A06
:10330800123DAD7402121770850A82850B83123440
:10331800CD70030233BE1233CEA818A919881089BC
:1033280011781012198D7CFF7DFF790B8508828535
:10333800098312398E1217201233D8700B850A822E
:10334800850B83123997807B8E828F83A3A3A3A3D7
:10335800E0F5127812121991E4F512F513781212A9
:10336800198D7512F1751302781212198D781012D1
:10337800198D74091217561219A4740912175612C6
:1033880034C685088285098312397F121720E9FE21
:1033980070157CF17D0285088285098312367812C2
:1033A80003BEE97009801A74166E70027E00123F1F
:1033B8004DEE7004800B7E01850A82850B83123CDA
:1033C8009AEEF9023CAFEE2402F508E43FF5092233
:1033D8008A108B119002F2EAF0A3EBF0EA4B227408
:1033E800EC12177A74FC12170AEAFEEBFF8C0E8DAA
:1033F8000FEA2405F508E43FF509740212177085F1
:1034080008828509831234CD70030234B6EE240293
:10341800F50AE43FF50BA818A91988108911781046
:1034280012198D7CFF7DFF790D850A82850B831229
:10343800398E1217201233D8700B850882850983BC
:1034480012399780768E828F83A3A3A3A3E0F51207
:103458007812121991850882850983A3A31219A4E9
:103468007512F1751302781212198D781012198DD0
:1034780074091217561219A474091217561234C671
:10348800850A82850B8312397F121720E9FE700F97
:103498007CF17D021236721203C4E97009801A7435
:1034A800166E70027E00123F4DEE7004800B7E0196
:1034B800850882850983123C9AEEF9023CAFE0F94F
:1034C800AC0CAD0D22123C858A0C8B0DEA4B227494
:1034D800E812177A74FE12170A8A168B178C148D45
:1034E80015EA2405F50CE43517F50DEA2402F50E66
:1034F800E43517F50F850E8212367C8A088B09751C
:103508000B007C037D0079007AF17B021211C875EB
:103518000A00E50814F5100424FFF508E50934FF4E
:10352800F509804C9002F1E0FA9002EEE0F8EA2802
:10353800F8E43400F9E50898E50999500D9002F18E
:10354800E0F8E510C3989002EEF0E0F5127513006C
:10355800781212198D1245DE9002F2E02A1232CB4F
:103568001217209002EEE0F89002F1E028F0050A28
:10357800850C82850D83A3A3123F4640030236576C
:103588009002F1E0C39508E495094003023657AE6E
:103598000AEE2EFEE433FF123699AC18AD19124527
:1035A800EBE439FB1206768A128B13AC12AD13EAE0
:1035B8004D701B750B0112368A123C9E9002F21256
:1035C8002C266003121234A90B74020239028516E4
:1035D80082851783A3A3A3A3E0F50B780B12199197
:1035E800E4F512F513781212198D7512EE7513029F
:1035F800781212198D9002EF1219A4740712175637
:103608001219A4A910850E82850F8312397F12170B
:1036180020E9F50B70A0124039600302352CE4F55F
:1036280012F513781212198D7CFF7DFF790F850E24
:1036380082850F8312398E1217208B13A91312302B
:1036480094600302352C12368A12399B0235D17CDC
:10365800F17D02850E82850F831236781203CAE93E
:1036680060030235C479000235D1850A82850B834F
:103678001232F92212368022F583123C8DFB120495
:103688009022123699123C8DF9EA851482851583A9
:1036980022850C82850D83E02EF8A3E03F8882F511
:1036A800832274E812177A74FA12170A740412172C
:1036B800561232E18C168D177404121756E0240541
:1036C800F50EA3E03400F50F7404121756E0240237
:1036D80012390A12391F7F007E00A818A919880814
:1036E8008909780812198D850E82850F83A3A3A3F3
:1036F800A3E0F5088F09780812198DE50E2405F561
:1037080008E4350FF509780812198D850E82850FA2
:1037180083A3A31239671217208A0C8B0D802412F9
:10372800393AF00F12393AF00F9002EE123C70124B
:10373800198D1245DEEFF81232C61217209002EEEC
:10374800E02FFFE50C450D607A85188285198312F4
:1037580019A4AC0CAD0D8514828515831239161287
:103768001720E9FEE50C2404F510E4350DF511E900
:10377800704B7404121756123940F508780812195C
:1037880091E4F508F509780812198D7508EE7509A0
:1037980002780812198D9002EF1219A474071217F3
:1037A800561219A4E50A24FAF9AC0CAD0D85148259
:1037B80085158312397F121720E9FE6036123956B3
:1037C800123C9DEF70030238ED9002F2E0F5F0EF45
:1037D800849002F1F07CF17D0285148285158312B4
:1037E80036781203D0E960069002F3123F50790050
:1037F800023900EFF508703DE4F512F5137812125E
:10380800198D7CFF7DFF7911851482851583123906
:103818008E1217208B13A9139002F3123097700998
:1038280012395612399A0239009002EEE0240490B7
:1038380002F2F080359002EEE0F89002F2E0FCE847
:103848002404FAE43400FBEA6C4B60030237D1E548
:103858000A24FAFAE50B34FFFBE50828F8E43400FB
:10386800F9EA98EB9950030237D1851082851183C4
:10387800E0C0E09002F3E02FF8A3E034008882F57E
:1038880083D0E0F00F851082851183A3E0C0E01299
:103898003927D0E0F00F7402121760880889097878
:1038A8000812198D74021217561219A4850E8285F2
:1038B8000F83A3A31239491217208A0C8B0DEA4BE8
:1038C80070030237277402121756E0C0E012392736
:1038D800D0E0F00F7402121756A3E0C0E0123927A7
:1038E800D0E002372FEE70027E0A850E82850F83A4
:1038F80012395C123C9DEEF974061217207F1002F3
:10390800184CF514A3E03400F51585148222123200
:10391800F912065E7402221236808A0A8B0B221272
:10392800392B229002F3E02FFAA3E034008A82F5C3
:10393800832212392B74FF221245CAA3A3A3A3E042
:10394800221245E5AA0CAB0D12067C7404228510E0
:1039580082851183124773F985168285178322128F
:1039680045E5850E82850F831232F91206707406BA
:10397800228510828511831232F91207D874092220
:103988008510828511831232F912074274022212BD
:103998003CA3E8F0A3E9F079112274EA12177A74CB
:1039A800FE12170A8A088B098C128D13EA2405FE69
:1039B800E43509FF123C798A0C8B0DEE2406F50ECE
:1039C800E43FF50FEA4B7003023A88E5082402F554
:1039D8000AE43509F50B8A828B83A3A3A3E0A2E549
:1039E8005022123AB28A108B11EA4B60247912AC39
:1039F8000CAD0D123672851082851183121778E985
:103A0800F50C707F850E82850F83E06009795280FE
:103A180011750C0E806D850882850983A3A3A3A365
:103A2800E0F9E4F508F509780812198D8E828F837C
:103A3800A3A3E0F508780812198D8E828F83A3A3BB
:103A4800A31219A48E828F831245E1850A82850B01
:103A580083123DBF121720E9F50C7011850E82857F
:103A68000F83E0702C1236721203D6802474166904
:103A78007011750C0074181217561245C6E48010A0
:103A8800750C01124769851282851383E8F0A3E952
:103A9800F0850E82850F83E0600479008002A90C0E
:103AA80074021217207F0E02184C8518828519831C
:103AB8001232F91207CC2274EC12177A74F7121723
:103AC8000A8A0A8B0B8C108D11EA2405FEE4350B4B
:103AD800FF750C00123C798A088B09EA4B700302C7
:103AE8003C5BE50A2402F50A5002050B8A828B83A7
:103AF800A3A3A3E0A2E55025123AB28A0C8B0DEAE3
:103B08004B604F7912AC08AD09123672850C82856C
:103B18000D83121778E9F50C6003023C5E850A8272
:103B2800850B83E0F508A3E0F509AA08FB1207C096
:103B3800EA4B70197AFF7BFF1207C0EA4B70030249
:103B48003C518A828B83E508F0A3E509F0750800EB
:103B58008008750C0E023C5E05089002EBE0F8E563
:103B680008C3984003023C51E508F50E750F007430
:103B780003780E1216F78A828B83A3A3E0250EF82A
:103B8800A3E0350F12402E70CF8E828F83123C92A5
:103B98001232E18E828F83A3A3123C921232DFEE9F
:103BA8002404F508E43FF509850882F583E0888256
:103BB8008983A3A3A3A3F0A3E4F0EE2405F50EE400
:103BC8003FF50F850E82F583123C92A3A3A3A3129F
:103BD80032DF751207751300781212198DEEFCEF9B
:103BE800FD740412176812459C121720E4F5127828
:103BF8001212198D850882850983E0FC7D007917EA
:103C0800850A82850B8312398E12172074071217C2
:103C1800561233DF6038850882850983123C70129A
:103C2800198D850E82850F831245E112459C121766
:103C38002074021217701236721203DCE9602374C2
:103C480007121756123F508019750C098008750C19
:103C5800118003750C011247698510828511831242
:103C68003C9DA90C74098041E0F5087509007808A5
:103C780022AC18AD198E82F583123C8522123C8D38
:103C8800FB12067622E0FAA3E0221232F988828932
:103C98008322123CA3E8F0A3E9F022E0F8A3E0F9BC
:103CA800850E82850F832274041217207F0C021858
:103CB8004C74EC12177A123DAD751000EA2402F527
:103CC8000CE43FF50D850C82F5831236781207C097
:103CD8008A088B09EA4B7003023D91850A82850B9D
:103CE80083E064016003023D86AC08AD09AA0AAB13
:103CF8000B1207B4E9606F85088285098312307753
:103D0800EE2406F50AE43FF50B8E828F83A3A312F7
:103D180019A48E828F83A3A3A3A31219A4850A8250
:103D2800850B831219A479188E828F831245E18539
:103D38000C82850D83123DBF121720E9F8741668AE
:103D4800700B850A82850B83E4F0A38014E9601266
:103D58008E828F83123678850E82850F83EAF0A3D0
:103D6800EBF089108018780E12198DAC08AD09EEA9
:103D7800FAEFFB1207BA7402121720E9F510AA0825
:103D8800AB091207C6E510700E850C82850D8312EB
:103D980036781203E28009741665107003751000F6
:103DA800A910023CB4EAFEEBFF8C0E8D0FEA240545
:103DB800F50AE43FF50B221232F91207DE740622E7
:103DC80074EA12177A7508007509007E007F00757D
:103DD8000A00EC2402F510E43DF5118035EC650885
:103DE8007003ED65096003023E7D88828983A3A381
:103DF800E06A7003A3E06B707C88828983A3A3A325
:103E0800A312476DEE28FEEF39FFEA28FAEB39FBDB
:103E1800050A123F43503BE50AF50C750D00740383
:103E2800780C1216F7851082851183123F361240DE
:103E38002E601FE508450970A48C088D09888289C1
:103E48008312307588828983A3A3E02EFAA3E03F0A
:103E580080BDE50AC394025003023F31750800751E
:103E68000900EE4F600FEEFAEFFB12122E8A0E8B4E
:103E78000FEA4B70057900023F33750B00807FE530
:103E88000BF50C750D007403780C1216F78510826B
:103E9800851183E0250CF50CA3E0350DF50DE50C37
:103EA8002406F514E4350DF51585148212403160A9
:103EB8003AE50C2404F512E4350DF513851282F564
:103EC800831219A4E50E2508FAE50F124595121775
:103ED80020851282851383E02508F508A3E03509BB
:103EE800F509851482851583123F50E50B600D7C1A
:103EF800087D007900AA0CAB0D1211C8050BE50B63
:103F0800C3950A5003023E878510828511831247A4
:103F18006D8882F583A3A3A3A3A3A3E50EF0A3E56D
:103F28000F122C2DEEF0A3EFF07901023AAD123FFB
:103F38003A22E0250CF8A3E0350D229002EBE0F8D8
:103F4800E50AC398229002F21232F912123422744E
:103F5800F012177A8A0E8B0F8C0A8D0B750D00756F
:103F68000C00804A7916EE2406F508E43FF5098E20
:103F7800828F83A3A31219A48E828F83A3A3A3A3E2
:103F88001219A48508828509831219A4850E8285D1
:103F98000F83A3A3123DBF121720E9F50D7416690C
:103FA8007064850882850983E4F0A3F0050C90020B
:103FB800EBE0F8E50CC398505EAA0C7B008A088BEE
:103FC80009740378081216F7850A82850B83A3A360
:103FD800124088E8FEE9FF12402F603BEA24010AFC
:103FE80050010B9002EBE06A7001EB601488828943
:103FF80083A3A3A3A3A3A3A3A312403C6003023FEC
:104008006C7918023F6EE960A312476974101217A1
:1040180056124026123C9DA90D7F0802184C123CEE
:104028008DF5838A8222F98882F5831245E5EC4D65
:10403800229002F2124773F9E8492274F612177AAD
:104048007C0080010C900348E0F8ECC398501FEC0A
:10405800F508750900740278081216F712407DE019
:104068006A7003A3E06B70DCE8FAE9FB80047A006D
:104078007B000241199002E91240888882F5832268
:10408800E02508F8A3E03509F92274F212177A8AB4
:10409800088B09750A0080278E828F83A3A3A3A3A8
:1040A800122C2460031212347C087D007900EEFA89
:1040B800EFFB1211C88E828F83E4F0A3F0050A1279
:1040C8003F435028E50AF50C750D007403780C126F
:1040D80016F7850882850983A3A3E0250CFEA3E0D3
:1040E800350DFF8E82F58312403C70AC85088285C1
:1040F800098374FFF0A3F002485674F612177A1277
:10410800470A70067A007B008007A3A3A3A3123690
:10411800787F0202184C74F612177AE9FE8C828DA9
:1041280083E06402703D1246FAF508A3E0F9A80896
:10413800740268700374296970297508027509008A
:10414800780812198D740E1217561219A4740E12CB
:1041580017561219A4EEF91210BA7406121720E9AC
:10416800F98002790180AA74E812177A74FB121791
:104178000AE9851882851983F08A168B17ECFEEDFB
:10418800FF7510008C82F583A3A3A3E0A2E4502A54
:10419800741D121756123AB88A828B83E5824583BA
:1041A800700302458B790AEEFCEFFDAA16AB1712D5
:1041B8001778E9F510600302458E741F121756E050
:1041C800F508A3E0F5097421121756E0F50AA3E0F3
:1041D800F50B7423121756E0F50EA3E0F50F8E8247
:1041E8008F83E064026003024537A312476D850898
:1041F80082850983A3858212858313EE2406F50C34
:10420800E43FF50D888289831245EBF514E439F50E
:10421800157814121A1701000028012846420700D1
:104228000228124303287B420029334401295E44B3
:104238000229FC43032933440429D4443745E50EB5
:10424800450F6003024532850C82850D8312476D48
:10425800E8FAE98882F583E0850A82850B831245AE
:10426800F51245A212198D8A828983A3E0FCA3E086
:104278000244C0E50E450F6003024532850A828577
:104288000B837401F01245D3850882850983F07C7D
:10429800007D008E828F83A3A3A3A3E02401FAA349
:1042A800E03400FB120676EA4B60458A828B83E095
:1042B8002402F8850A82850B83E028F0EA2404F8B2
:1042C800E43BF98882F583E08512828513831245E1
:1042D800FBF08A828B831245A212198D8A828B8306
:1042E800A31245E1E5082403FAE43509FB0244C5B5
:1042F800850A82850B83E02404F07C047D00790024
:10430800AA12AB131211C802458EE50E450F6003C1
:104318000245321245D3FEA3E0FF850A82850B834E
:104328007404F0EE850882850983F0EF8512828592
:104338001383F074031217701246EC70030243DD06
:104348008A828B83A3A31230757401121760880EBA
:10435800890F780E12198D74051217561219A47C3C
:10436800FF7DFF12067C7404121720EA4B70338518
:104378000C82850D831245BD12198D850C82850D21
:1043880083A31219A47C027D007A537B8212047ED7
:104398007404121720E9700A740112175674FFF09A
:1043A800A3F08E828F83E064027034750C02750D61
:1043B80000780C12198D8E828F83A31245E1E508CF
:1043C8002404FAE4124595121720850A82850B8386
:1043D800E0240280097401121756EEF0A3EFF0747E
:1043E800011217561245B3F07401121756A312455D
:1043F800AB02452CE50E450F6003024532850C8261
:10440800850D831245C61245E1AA16AB171210C0D6
:10441800850A82850B837402F0850882850983EA00
:10442800F0851282851383EB02452FE50E450F6058
:10443800030245321245D3F8A3E0F9850A82850BB9
:10444800837402F0E8850882850983F0E985128281
:1044580085138302452F850C82850D8312367812C9
:1044680011AAEAF8C3950EE4950F405AEA650E457D
:104478000F700478008021851882851983E0FCE597
:104488000E2CFCE4350FFDC3EC9AED94005003E0CC
:104498008005E50EC8C398F8E8850A82850B83F085
:1044A800F50A750B00780A12198D850C82850D8323
:1044B800E0250EFCA3E0350FFDAA08AB0912459CC8
:1044C80012172002458E75100702458EE50E450F1E
:1044D8007058850C82850D8312476D850A82850B7D
:1044E8008374071245F51245AB1245F5A3E0851212
:1044F80082851383F0E82402FAE439FB8A82F58383
:104508001245ABA3122B0C1245B3122C2C1245B733
:10451800F0E82405F8500109F58289831245B7A30C
:104528001245FBA3A3A3A3F0805C75100B805774FE
:104538001D121756124703604A124773880CF50D6F
:10454800E8450D603E7425121756E0F510781012F4
:104558001991780E12198D780A12198D7808121986
:104568008D7407121756E0F9EEFCEFFDAA16AB178B
:10457800850C82850D831217787407121720E9F5C8
:1045880010800375100EA91074050239023509123E
:10459800459B22FB1211B0740222E0F50A750B004C
:1045A800780A22E0850882850983221246052212AC
:1045B8004605A3A322E0F50E750F00780E221245DA
:1045C800CA22E0F8A3E0F583888222850C82850D53
:1045D800831245CAE0229002EF1245E522E0FCA3CF
:1045E800E0FD22123C8DF8E4C8F9EA2822F088821E
:1045F800898322F088828983A312460522E08508F0
:1046080082850983A3A32274EE12177A74FE121707
:104618000A8A088B09ECFEEDFF890AAC18AD19125D
:1046280046EC70030246DD8518828519831247031C
:1046380070030246D8A3124772880EF50FE8450F9B
:1046480070030246D87414121756E0F510A3E0F56B
:1046580011E50AF50B780B121991741912175612F5
:1046680019A4781012198D741B1217561234C6AA81
:1046780008AB09850E82850F831217787405121707
:1046880020E9F50B705274FE650A604C850C828532
:104698000D83E0640270411246FAFAA3E0F9EAF8E1
:1046A8007402687003742969702E851082851183DD
:1046B8001245EBF50CE439F50D780C12198DEEFC6A
:1046C800EFFDAA08AB091207F6740212172080083A
:1046D800750B0E8003750B01A90B74021217207F4E
:1046E8000A02184CEEFAEFFB1206768A0C8B0DEADA
:1046F8004B221247728882F583E0221232F9124760
:104708000A221207728A828B83E58245832274F615
:1047180012177A74FE12170A740C12175612476D84
:10472800E8851882851983F07401121756E9F0E4B8
:10473800F508F509780812198D7508027808121914
:104748008D740412176088088909780812198D7900
:10475800FE1207DE74061217207402121720024197
:10476800198E828F83124773F922A3E0F8A3E022FF
:1047780074F712177AEAFEEBFF89089003061245D0
:10478800E11210C0EA5402600BA908EEFAEFFB121E
:10479800066A800279017F0102184C74F212177AB6
:1047A80074FE12170AEAFEEBFF74016960137402C3
:1047B8006960030248517901120A06E96003024858
:1047C80051EEFAEFFB1207C0EA4B60031207C6A8C6
:1047D80018A91988088909780812198D75080275A9
:1047E8000900780812198D75083B75098278081236
:1047F800198D7CFF7DFF7A017B001206707406120A
:104808001720803B850882850983A3A3A3A3A3A3BC
:104818001245C61245E1EEFAEFFB1210B4E4F50CAE
:10482800F50D780C12198D74021217561219A47C02
:10483800FF7DFFAA08AB0912067C74041217208AB0
:10484800088B09E508450970BB74021217207F061A
:1048580002184C74F412177A8A088B09ECFEEDFFE3
:104868009015F9E0F460487A097B001211D4EA4BFC
:10487800603D8A828B8374B1F0A3E41248BA122B8C
:104888000DA3E508F0A3E5091248BAA3EEF0A3EFDB
:10489800F0740C12175612476D8A828B83A3A3A358
:1048A800A3A3A3A3123C9D9015F9E0F91211E0020D
:1048B8002C62F08A828B83A3A3A3A322C082C08325
:1048C8009061907404F0A37448F0A37402F09061AE
:1048D800807440F09061BC7403F09061877419F0A3
:1048E800906265741BF0906249E0C3941390619CD8
:1048F80040107409F09060667401F090619F74280C
:10490800800D740BF0906066E4F090619F742CF059
:10491800124AA97009C29190037A746780059003BE
:104928007A7461F090294EE493906186F09029485A
:10493800E493F46006E493F9120B087905120DE488
:10494800024D37C082C083E9540FF9906185E06950
:104958006012E5C654B84441F5C6E59E5447644123
:1049680070F8E9F053C6B8E59E544770FA024D371F
:10497800C082C083A8A853A87E906181E41257AC76
:10498800C2BA539AFEC289759B00C2C275E9007506
:10499800910075BF0075A91175B905906181F0A3E3
:1049A80074C0125F30D2BA439A0174805842A80288
:1049B8004D37C082C08374F812170A9003781261C9
:1049C800C57003024A8A900378E05440601779085A
:1049D800AA18AB19120C0AAA18AB1912086E900380
:1049E80078E054BFF0E054806010790C7A477B057A
:1049F800120C0A900378E0547FF0E0A2E0501912FC
:104A08004AA97009C29190037A7467800590037A65
:104A18007461124A9254FEF0E054026019124AEE90
:104A28007009D29190037A7471800590037A746A40
:104A3800124A9254FDF0E05404600990294C124A3D
:104A48009B54FBF0E05408600990294D124A9B548E
:104A5800F7F0E05410600990294E124A9B54EFF089
:104A6800E05420600A12087A900378E054DFF0A33B
:104A7800E05401600D120B2C120880900379E05469
:104A8800FEF07408121720024D37F01208749003D4
:104A980078E022E493906186F012087A900378E037
:104AA8002290619A124D0B900521E0640122C08288
:104AB800C083E960051460178029124AA97009C2E9
:104AC8009190037A7467801A90037A746180131244
:104AD8004AEE7009D29190037A7471800590037A36
:104AE800746AF0024D3790619A124CFD900521E0EE
:104AF800640122C082C083E9600814600A14600C53
:104B0800801390294C800890294D800390294EE409
:104B180093906186F0024D3774EA12177A74F41292
:104B2800170A9081C4AC18AD19740412161D902987
:104B38004C93F46003024C92907808E0C3940250BE
:104B480003024C7690815974041217707408121677
:104B58001DA818A9198814891574041217608808E3
:104B68008909AE08AF097510FF7511FF750EFF7C36
:104B780000750C48750D78801274086C7003024C2F
:104B88000B74096C607D740A6C6078850C82850DE5
:104B98008378081215B68E828F83A909E50AC9F5AC
:104BA80012741878081214DFE5124508F8C3E09863
:104BB800A3E099850C82850D8378081215B64018F4
:104BC8008E828F83741878081214DFE5124508F86E
:104BD800E0C398F8A3E0801A741878081214DFE587
:104BE800124508FAE9FB8E828F83125E44EAC39865
:104BF800F8EB99F9C3E89510E995115006881089E2
:104C0800118C0E0CE50C2404F50C5002050DECC3B8
:104C180094135003024B8174FF6510700474FF6590
:104C2800116025E50EF508740278081216F7744825
:104C38002508F58274783509F58378081215B68544
:104C48001482851583E508F0EE2402FE50010F85D5
:104C58001482851583A3858214858315740C121715
:104C680056E5826E7003E5836F6003024B6E75082C
:104C780001750900780812198D74021217707A5399
:104C88007B0A1211087402121720740C1217207F65
:104C98000E02184CC082C0839061AE7468F0A37491
:104CA8006AF090624574FBF0A304F053F4FD43FEF0
:104CB800029005217401F09061A0E0643A90619A35
:104CC8007019124D0B740164017009C29190037A36
:104CD8007467801E90037A74618017124CFD74010A
:104CE80064017009D29190037A7471800590037AF7
:104CF800746A024F26743FF0A3745AF09061A0744E
:104D08007FF0227433F0A37455F09061A0743AF0E8
:104D180022C082C0839004D3E06401700A9004D852
:104D2800E06004790C800279008004A2E092AFD0A0
:104D380083D082020132C082C08375E1F19004D62B
:104D4800E0605314600914605714604F14705612D1
:104D58000B3E9004C5E0F97AC67B04120D6690817B
:104D6800C01215D4120D9C9081F01215D4120D7238
:104D78009004D7E0F9120D7E7901120DD89004C382
:104D8800125094241AF582E438F5837456F0A3740B
:104D98000BF079008099120B4480B7120B4A80B24D
:104DA800120B5080AD791280EB74F412177A75D912
:104DB8000D9004CCE0A2E0E4331313F8124F8148BD
:104DC8004401F5D97582C6758304124F8B7004E5CA
:104DD80083640470F57582CD7583041250EDE58205
:104DE80064D37004E583640470F175E1959004CC94
:104DF800E0F97ACD7B04120D6C90161D74DEF0A3D9
:104E0800740A124ED5124F13124F0A12505C9004B6
:104E1800D6E064019004C3700B124E661215B6906A
:104E280081BC8009124E661215B69081B8780812B6
:104E3800152A9081EC78081215909004C3125D40F1
:104E4800E438F58378081215C59004C312509412FB
:104E58004F017413F09003767402F0025E31126110
:104E68004DA3A3780822C082C083124F71F5D9756B
:104E780082C6758304124F8B7004E583640470F551
:104E88009004DCE0600A78C37904FA125025DAFB52
:104E9800125014124F8B7004E583640470F590046B
:104EA800FCE0600D78C37904FAE8243A125028DA55
:104EB800F875E19590161D74EAF0A3740A124ED5A0
:104EC800124EDF7412F0900376740180511250452F
:104ED80074E4F0A3740A22124F13124F0A1250609E
:104EE8009004C3125D44E438F58374FF12579A9016
:104EF80004C3125098124F01222414F582E438F5A5
:104F08008322F0A374FCF0A3740A22124F17221212
:104F18004F1B22F0A3746AF0A3740C22F0A3F002D2
:104F28004D37C082C083124F714402F5D97582C6CD
:104F3800758304124F8B7004E583640470F5900444
:104F4800DCE0600A78C37904FA125025DAFB75E1CF
:104F58009590161D124F94F0A3124F94124EE274BE
:104F680014F0900376740480B59004DC124F782214
:104F7800E02407F5D9124F81229004C5E0C43333E9
:104F880054C022E0F5D9A3E58264CC2274F6124F0E
:104F9800A1124FA1F0A3740A22F0A3740AF0A3741B
:104FA800F622C082C083124F714406F5D97582C6B5
:104FB800758304124F8B7004E583640470F59004C4
:104FC800DCE0600A78C37904FA125025DAFB125043
:104FD80014124F8B7004E583640470F59004FCE0B0
:104FE800600D78C37904FAE8243A125028DAF87583
:104FF800E19590161D74F0F0A3740A12503B124EFE
:10500800DF7415F09003767403024F269004FC12A7
:105018004F784404F5D97582C675830422E8241AAA
:10502800F582E439F583E0F5D988828983A3A882DB
:10503800A98322125045746AF0A3740C22125049B5
:1050480022125056746AF0A3740C12505622124F52
:105058001BF0A32212506022F090162B746AF0A362
:10506800740C125049746AF0A3740C124F17F02292
:10507800C082C0839004C31250942406F582E43899
:10508800F583E4024F2485188285198312509822EB
:10509800E0F8A3E0C82274F712177A9003A4125E0E
:1050A8003674A628F8740339F9E82405FAE439FBBC
:1050B8008A82125F16A3A3A3A3A3A3A3A3A3126127
:1050C800ACA3A3A3A3A3A3A3E024FFF8A3E034FF06
:1050D800F98A828B8312617E0252D27C0179031293
:1050E8000C5E740222E0F5D9A32212540D3BF5831D
:1050F800E022F0EA2484F582E43BF583E022EAF832
:10510800EE28F8E43BF9E82274F712177AEAFEEB86
:10511800FF9061D0E0706875D90E75D90375D90410
:105128007A00125106248D1251A140F67A001251CC
:1051380006248512519B40F675E1957908EE248D79
:10514800125194248512518C7C00ECF8C3E498FA2F
:1051580095E0FBEE2AFAEF3BFBEA248C126122C0B1
:10516800E0EE28F8E43FF9E824ACF582E439F58369
:10517800D0E0F00CECC3940840D01252948002792D
:10518800000252D2FAE43FFB120BFE2212518C7934
:1051980004EE221251A79404221251A7940822F572
:1051A80082E439F583E0F5D90AEAC322C082C083D4
:1051B80075D90275D90375D90575E195EA12522C8E
:1051C8003B125E42EA2471F582E43B1252A1024D81
:1051D8003774F612177AEAFEEBFF90052774061269
:1051E800523B12198D1250E312172075D90675D942
:1051F800037582277583051252327004E5836405AE
:1052080070F575E195900376E06408701112522BE1
:105218003F125E42EE2471F582E43F12617C79010F
:10522800025380EE246FF582E422E0F5D9A3E582EB
:10523800642C22F075082775090578082274F6127F
:10524800177AEAFEEBFF9061D0E0703378019005A1
:1052580027740BF0900376E06407701375082775C0
:105268000905780812198D1250E3121720780512D3
:1052780054F81250EDDAFB75E195125294800279D8
:105288000002538075E1957904120DA2EE246F1285
:1052980061CBEE2471F582E43FF583E8F0A3E9F0F1
:1052A80079012274F712177AEAFEEBFF75D90375B4
:1052B800D90375D90DEA24DF12600FF5D912528C83
:1052C8008008F0EEA2E092AF79007F0102184CE866
:1052D800C39A95E0C365D0332274F612177A125434
:1052E8000160047A0F80027A0B1252D740437C097E
:1052F800900527EC125352125361DDFB12600C60CB
:1053080019750827750905780812198D7903EEFAB9
:10531800EFFB1250E71217207C0D12533D1253F881
:1053280070FB75E1957904120DA212548179018000
:1053380002790080431253438C082274012CF5D95A
:1053480075D90375822775830522F0EE24E4F8E405
:105358003FF97A287B057D082288828983E08A8242
:105368008B831261B4A3A882A9838A828B83A3AAA0
:1053780082AB8322A2E092AF7F0202184C74F6122D
:10538800177A12540160047A0C80027A081252D7F4
:10539800405A7806900527740CF0900393E0900526
:1053A80028F0900394E0900529F0900395E090058B
:1053B8002AF0900396E090052BF0900397E0900573
:1053C8002C12549560197508277509057808121963
:1053D8008D7C067903EEFA1250E7121720780A122C
:1053E800548F1253F870FB12528C80027900808817
:1053F800E0F5D9A31508E50822EAFEEBFF12540DE3
:105408003FF583E0229061D0E0F87480C398F8EA11
:105418002484F582E42274F612177A125401600487
:105428007A0880027A041252D740497802900527F8
:10543800E8F0EE24F612600F9005281254956019D2
:10544800750827750905780812198D7C027903EE0D
:10545800FA1250E7121720780612548F1253F87078
:10546800FB75E1951254817904120DA2EE240D12F8
:10547800529780027900025380EE241DF582E43FA2
:10548800F583E4F0A3F0221254FE880822F0EE24FB
:1054980084F582E43FF583E02274F612177A1250FD
:1054A800F260047C0880027C04E8C39C1252DA4053
:1054B8003A78029005277407F0EA24F712612290DF
:1054C80005281250FA60157508277509057808121D
:1054D800198D7C021250E512172078061254F81222
:1054E80050EDDAFB75E1957901800279000253806D
:1054F8001254FEE8FA22740128F5D975D903758289
:10550800277583052274F612177AE9FEA2AFE433F1
:10551800FDC2AF7C0080010C12611FF8ECC39850EB
:1055280014ECF8EA125109246AF582E439F583E0AB
:105538006E70E48018EA246EF8E43BF9E0F508EAB6
:105548002508FAE43BFB1255E6EE12569DED025390
:105558007C74F612177AEAFCEBFDA2AFE433F50887
:10556800C2AFEA246EF582E43DF583E014F0EA2444
:105578006AFAE43DFBEA2403F8E43BF9E8FEE9FFB4
:105588008A828B83A3A882A983E08A828B83F0E82E
:10559800FAE9FBEE6A7002EF6B70E5EC246DF582B8
:1055A800E43DF58374FFF0EC2469F582E43DF5836E
:1055B800E4F0E50802537CC082C083A2AFE433F86C
:1055C800C2AF1255E6E9F0EA2469F582E43BF583B7
:1055D800E4F012611F70037401F0E8024D33EA240D
:1055E8006AF582E43BF5832274F312177AEAFEEB3C
:1055F800FFECFAEDFB8C82F583A3A3A3A3E0541F71
:10560800F0EE2436F582E43FF583E4F0750800EE09
:10561800245DFCE43FFD8A828B83E08C828D83F0DD
:10562800750900E50833333354F8F50C8A828B8307
:10563800E0F50A750B00E509780A1216D8E50AA202
:10564800E05027EE2436F8E43FF98882F583E0F548
:105658000AEE250AF50AE43FF50BE50A2438F58237
:10566800E4350BF583E50C12569D0509050CE50993
:10567800C3940840B705088A828B83A3AA82AB83A8
:105688008C828D83A3AC82AD83E508C394054086E4
:105698007F0502184C1261B4E004F022C082C08376
:1056A8009003A2E0640170030257927C009003A863
:1056B800E06003025792125F2EA3F090040804F0F2
:1056C80090040DF09003AB1257999003B504F09035
:1056D80003DBE4F09003BE1257A0A3F0900426F079
:1056E80090041AF0900429F090040E7480125F3030
:1056F800900414F09004921257B290049BF0900416
:105708002AF090047A1257B2A3F0A3F0900486F01E
:10571800900488F0900484F090049E1257B290048C
:10572800B1F09004AB1257A074FF9004107804F005
:10573800A3D8FC7A037B0478B67904125361E86431
:10574800BB7003E9640470F3788A790388828983DB
:10575800E0C0E0ECFA748A2AF582E43404F583D0D8
:10576800E0F00C88828983A3A882A983ECC39408FB
:1057780040DA9003A2E004F0640170089003AAE004
:105788009003A4F07AA67B0380047A007B00024D84
:1057980037E41257ACA3F0221257A4221257ACA335
:1057A8001257AC22F0A3F0A3F0221257A4A3F0A33F
:1057B800F022C082C0838A828B83A3A3A3E0600FF8
:1057C8008A828B83A3A3A3E4F09003A3E014F09050
:1057D80003A2E014F070069003A474FFF08A828B91
:1057E80083A3A3E4F09004BBE0700D9003A3E064EE
:1057F8000170057900120D84024D37C082C0839074
:1058080003A9E4F09003A8F09003A2F0A3F0A37416
:10581800FFF075E1F1024D3774E812177A74F4124B
:10582800170A851882851983EAF0A3EB125DC21264
:105838005D6C1215E074021217561215EC888289F5
:1058480083A3A3A3A3A3A3125E447406121756123C
:10585800617E74241217561219A074061217561274
:1058680015D41226937404121720E96003025CCD44
:10587800125D961219A074281217561215D4122602
:10588800EF74041217208A088B098C0A8D0B125D9D
:10589800AB7003025B6F12508E2475F582E438F505
:1058A80083C082C083851882851983125D60A31224
:1058B8005E44D083D082E0C398F50CA3E099F50D3F
:1058C800125DAB64028518828519837008125D40E9
:1058D800E834018003125D56F583E0F510A3E0F586
:1058E80011850C14850D15751600751700E4F51251
:1058F800F513781479101213F074081217567814E7
:105908001215C5125D9678101215B674081217563E
:10591800781012152A78101219897428121756123D
:1059280015D41226937404121720E97003025B6FD2
:10593800851882851983E0125D36F583E0F510A39A
:10594800E0F511E4F512F5137408121756780812E9
:105958001564780879101215179081F878081215CF
:105968002A8510148511158512168513177808795C
:1059780014121470850814850915850A16850B17E5
:10598800781479101213F0E50C2508FEE50D350999
:10599800FF12615A7408121756C082C08312508EC3
:1059A8002478F582E438F583125D4EE4F50AF50BA8
:1059B800D083D082780812152A780879141215171E
:1059C800125DAB64016003025BC28518828519838E
:1059D800E02477FCA3E03400FD851882851983E074
:1059E800FAA3E0FB120BE012508E125D7D24201208
:1059F8005DEE241CF582E438F583E4125DF8241D7D
:105A0800F582E438F583E4F0A3125DF82407125D0B
:105A18007F125D2DE028F8A3E039125D89240B126E
:105A28005DEE247A125D7F242EF582E43AF583E058
:105A3800687003A3E0697042851882851983E024A1
:105A48007EF582E43A125D832432F582E43AF583E6
:105A5800E0687003A3E0697021851882851983E0E6
:105A6800247CF582E43A125D832430F582E43AF529
:105A780083E0687003A3E069605F12508E247EF5AE
:105A880082E438F583E0F50CA3E0F50D7404780C96
:105A98001216E8780C12198D7402121756125094C7
:105AA800247CF582E438F5831219A474041217567D
:105AB800125094247AF582E438F583E0FCA3E0C31D
:105AC80013FDEC13FC7404121756125D60E0FA7BA8
:105AD800001208D47404121720851882851983E0EF
:105AE800242EF8A3E03400F9E8FAE9FB8882125E74
:105AF80042851882851983E0FCA3E0CC240EF58248
:105B0800EC3401125DF22477F582E438F583E0C0C5
:105B1800E012508E242BF582E438F583D0E0125D34
:105B2800C2125D361261A0ECF0A3ED125DF8125DB1
:105B38007D2430125DEE247E125D7F2432125DDA00
